{
  "_format": "hh-sol-artifact-1",
  "contractName": "FuseNewsContract",
  "sourceName": "contracts/FuseNews.sol",
  "abi": [
    {
      "anonymous": false,
      "inputs": [
        {
          "indexed": false,
          "internalType": "string",
          "name": "id",
          "type": "string"
        },
        {
          "indexed": false,
          "internalType": "string",
          "name": "title",
          "type": "string"
        },
        {
          "indexed": false,
          "internalType": "string",
          "name": "content",
          "type": "string"
        },
        {
          "indexed": false,
          "internalType": "string",
          "name": "createdAt",
          "type": "string"
        },
        {
          "indexed": false,
          "internalType": "string",
          "name": "publisher",
          "type": "string"
        }
      ],
      "name": "FuseNewsPublish",
      "type": "event"
    },
    {
      "inputs": [],
      "name": "checkRunning",
      "outputs": [
        {
          "internalType": "bool",
          "name": "",
          "type": "bool"
        }
      ],
      "stateMutability": "view",
      "type": "function"
    },
    {
      "inputs": [],
      "name": "getAllFuseNews",
      "outputs": [
        {
          "components": [
            {
              "internalType": "string",
              "name": "id",
              "type": "string"
            },
            {
              "internalType": "string",
              "name": "title",
              "type": "string"
            },
            {
              "internalType": "string",
              "name": "content",
              "type": "string"
            },
            {
              "internalType": "string",
              "name": "createdAt",
              "type": "string"
            },
            {
              "internalType": "string",
              "name": "publisher",
              "type": "string"
            }
          ],
          "internalType": "struct FuseNewsContract.FuseNews[]",
          "name": "",
          "type": "tuple[]"
        }
      ],
      "stateMutability": "view",
      "type": "function"
    },
    {
      "inputs": [
        {
          "internalType": "uint256",
          "name": "",
          "type": "uint256"
        }
      ],
      "name": "news",
      "outputs": [
        {
          "internalType": "string",
          "name": "id",
          "type": "string"
        },
        {
          "internalType": "string",
          "name": "title",
          "type": "string"
        },
        {
          "internalType": "string",
          "name": "content",
          "type": "string"
        },
        {
          "internalType": "string",
          "name": "createdAt",
          "type": "string"
        },
        {
          "internalType": "string",
          "name": "publisher",
          "type": "string"
        }
      ],
      "stateMutability": "view",
      "type": "function"
    },
    {
      "inputs": [
        {
          "internalType": "string",
          "name": "id",
          "type": "string"
        },
        {
          "internalType": "string",
          "name": "title",
          "type": "string"
        },
        {
          "internalType": "string",
          "name": "content",
          "type": "string"
        },
        {
          "internalType": "string",
          "name": "createdAt",
          "type": "string"
        },
        {
          "internalType": "string",
          "name": "publisher",
          "type": "string"
        }
      ],
      "name": "publish",
      "outputs": [],
      "stateMutability": "nonpayable",
      "type": "function"
    }
  ],
  "bytecode": "0x608060405260016000806101000a81548160ff02191690831515021790555034801561002a57600080fd5b506110e08061003a6000396000f3fe608060405234801561001057600080fd5b506004361061004c5760003560e01c806337658379146100515780635afa34db1461006f578063b8d3d5be146100a3578063f49b8506146100c1575b600080fd5b6100596100dd565b6040516100669190610a01565b60405180910390f35b61008960048036038101906100849190610a6d565b610416565b60405161009a959493929190610ae4565b60405180910390f35b6100ab610704565b6040516100b89190610b75565b60405180910390f35b6100db60048036038101906100d69190610cc5565b610715565b005b60606001805480602002602001604051908101604052809291908181526020016000905b8282101561040d57838290600052602060002090600502016040518060a001604052908160008201805461013490610dfb565b80601f016020809104026020016040519081016040528092919081815260200182805461016090610dfb565b80156101ad5780601f10610182576101008083540402835291602001916101ad565b820191906000526020600020905b81548152906001019060200180831161019057829003601f168201915b505050505081526020016001820180546101c690610dfb565b80601f01602080910402602001604051908101604052809291908181526020018280546101f290610dfb565b801561023f5780601f106102145761010080835404028352916020019161023f565b820191906000526020600020905b81548152906001019060200180831161022257829003601f168201915b5050505050815260200160028201805461025890610dfb565b80601f016020809104026020016040519081016040528092919081815260200182805461028490610dfb565b80156102d15780601f106102a6576101008083540402835291602001916102d1565b820191906000526020600020905b8154815290600101906020018083116102b457829003601f168201915b505050505081526020016003820180546102ea90610dfb565b80601f016020809104026020016040519081016040528092919081815260200182805461031690610dfb565b80156103635780601f1061033857610100808354040283529160200191610363565b820191906000526020600020905b81548152906001019060200180831161034657829003601f168201915b5050505050815260200160048201805461037c90610dfb565b80601f01602080910402602001604051908101604052809291908181526020018280546103a890610dfb565b80156103f55780601f106103ca576101008083540402835291602001916103f5565b820191906000526020600020905b8154815290600101906020018083116103d857829003601f168201915b50505050508152505081526020019060010190610101565b50505050905090565b6001818154811061042657600080fd5b906000526020600020906005020160009150905080600001805461044990610dfb565b80601f016020809104026020016040519081016040528092919081815260200182805461047590610dfb565b80156104c25780601f10610497576101008083540402835291602001916104c2565b820191906000526020600020905b8154815290600101906020018083116104a557829003601f168201915b5050505050908060010180546104d790610dfb565b80601f016020809104026020016040519081016040528092919081815260200182805461050390610dfb565b80156105505780601f1061052557610100808354040283529160200191610550565b820191906000526020600020905b81548152906001019060200180831161053357829003601f168201915b50505050509080600201805461056590610dfb565b80601f016020809104026020016040519081016040528092919081815260200182805461059190610dfb565b80156105de5780601f106105b3576101008083540402835291602001916105de565b820191906000526020600020905b8154815290600101906020018083116105c157829003601f168201915b5050505050908060030180546105f390610dfb565b80601f016020809104026020016040519081016040528092919081815260200182805461061f90610dfb565b801561066c5780601f106106415761010080835404028352916020019161066c565b820191906000526020600020905b81548152906001019060200180831161064f57829003601f168201915b50505050509080600401805461068190610dfb565b80601f01602080910402602001604051908101604052809291908181526020018280546106ad90610dfb565b80156106fa5780601f106106cf576101008083540402835291602001916106fa565b820191906000526020600020905b8154815290600101906020018083116106dd57829003601f168201915b5050505050905085565b60008054906101000a900460ff1681565b60016040518060a00160405280878152602001868152602001858152602001848152602001838152509080600181540180825580915050600190039060005260206000209060050201600090919091909150600082015181600001908161077c9190610fd8565b5060208201518160010190816107929190610fd8565b5060408201518160020190816107a89190610fd8565b5060608201518160030190816107be9190610fd8565b5060808201518160040190816107d49190610fd8565b5050507f6c73aaf5c6a5c7f2677cb0b8037a65e15da63697e3a832056aa79c9daca92980858585858560405161080e959493929190610ae4565b60405180910390a15050505050565b600081519050919050565b600082825260208201905092915050565b6000819050602082019050919050565b600081519050919050565b600082825260208201905092915050565b60005b83811015610883578082015181840152602081019050610868565b60008484015250505050565b6000601f19601f8301169050919050565b60006108ab82610849565b6108b58185610854565b93506108c5818560208601610865565b6108ce8161088f565b840191505092915050565b600060a08301600083015184820360008601526108f682826108a0565b9150506020830151848203602086015261091082826108a0565b9150506040830151848203604086015261092a82826108a0565b9150506060830151848203606086015261094482826108a0565b9150506080830151848203608086015261095e82826108a0565b9150508091505092915050565b600061097783836108d9565b905092915050565b6000602082019050919050565b60006109978261081d565b6109a18185610828565b9350836020820285016109b385610839565b8060005b858110156109ef57848403895281516109d0858261096b565b94506109db8361097f565b925060208a019950506001810190506109b7565b50829750879550505050505092915050565b60006020820190508181036000830152610a1b818461098c565b905092915050565b6000604051905090565b600080fd5b600080fd5b6000819050919050565b610a4a81610a37565b8114610a5557600080fd5b50565b600081359050610a6781610a41565b92915050565b600060208284031215610a8357610a82610a2d565b5b6000610a9184828501610a58565b91505092915050565b600082825260208201905092915050565b6000610ab682610849565b610ac08185610a9a565b9350610ad0818560208601610865565b610ad98161088f565b840191505092915050565b600060a0820190508181036000830152610afe8188610aab565b90508181036020830152610b128187610aab565b90508181036040830152610b268186610aab565b90508181036060830152610b3a8185610aab565b90508181036080830152610b4e8184610aab565b90509695505050505050565b60008115159050919050565b610b6f81610b5a565b82525050565b6000602082019050610b8a6000830184610b66565b92915050565b600080fd5b600080fd5b7f4e487b7100000000000000000000000000000000000000000000000000000000600052604160045260246000fd5b610bd28261088f565b810181811067ffffffffffffffff82111715610bf157610bf0610b9a565b5b80604052505050565b6000610c04610a23565b9050610c108282610bc9565b919050565b600067ffffffffffffffff821115610c3057610c2f610b9a565b5b610c398261088f565b9050602081019050919050565b82818337600083830152505050565b6000610c68610c6384610c15565b610bfa565b905082815260208101848484011115610c8457610c83610b95565b5b610c8f848285610c46565b509392505050565b600082601f830112610cac57610cab610b90565b5b8135610cbc848260208601610c55565b91505092915050565b600080600080600060a08688031215610ce157610ce0610a2d565b5b600086013567ffffffffffffffff811115610cff57610cfe610a32565b5b610d0b88828901610c97565b955050602086013567ffffffffffffffff811115610d2c57610d2b610a32565b5b610d3888828901610c97565b945050604086013567ffffffffffffffff811115610d5957610d58610a32565b5b610d6588828901610c97565b935050606086013567ffffffffffffffff811115610d8657610d85610a32565b5b610d9288828901610c97565b925050608086013567ffffffffffffffff811115610db357610db2610a32565b5b610dbf88828901610c97565b9150509295509295909350565b7f4e487b7100000000000000000000000000000000000000000000000000000000600052602260045260246000fd5b60006002820490506001821680610e1357607f821691505b602082108103610e2657610e25610dcc565b5b50919050565b60008190508160005260206000209050919050565b60006020601f8301049050919050565b600082821b905092915050565b600060088302610e8e7fffffffffffffffffffffffffffffffffffffffffffffffffffffffffffffffff82610e51565b610e988683610e51565b95508019841693508086168417925050509392505050565b6000819050919050565b6000610ed5610ed0610ecb84610a37565b610eb0565b610a37565b9050919050565b6000819050919050565b610eef83610eba565b610f03610efb82610edc565b848454610e5e565b825550505050565b600090565b610f18610f0b565b610f23818484610ee6565b505050565b5b81811015610f4757610f3c600082610f10565b600181019050610f29565b5050565b601f821115610f8c57610f5d81610e2c565b610f6684610e41565b81016020851015610f75578190505b610f89610f8185610e41565b830182610f28565b50505b505050565b600082821c905092915050565b6000610faf60001984600802610f91565b1980831691505092915050565b6000610fc88383610f9e565b9150826002028217905092915050565b610fe182610849565b67ffffffffffffffff811115610ffa57610ff9610b9a565b5b6110048254610dfb565b61100f828285610f4b565b600060209050601f8311600181146110425760008415611030578287015190505b61103a8582610fbc565b8655506110a2565b601f19841661105086610e2c565b60005b8281101561107857848901518255600182019150602085019450602081019050611053565b868310156110955784890151611091601f891682610f9e565b8355505b6001600288020188555050505b50505050505056fea2646970667358221220e3efd38a860ea262e2111e76cc65a68a09d911f851e5bb48bb2cceb46e2544ed64736f6c63430008130033",
  "linkReferences": {},
  "deployedLinkReferences": {}
}