{
  "_format": "hh-sol-artifact-1",
  "contractName": "NewsContract",
  "sourceName": "contracts/News.sol",
  "abi": [
    {
      "anonymous": false,
      "inputs": [
        {
          "indexed": false,
          "internalType": "string",
          "name": "id",
          "type": "string"
        },
        {
          "indexed": false,
          "internalType": "string",
          "name": "title",
          "type": "string"
        },
        {
          "indexed": false,
          "internalType": "string",
          "name": "content",
          "type": "string"
        },
        {
          "indexed": false,
          "internalType": "string",
          "name": "createdAt",
          "type": "string"
        },
        {
          "indexed": false,
          "internalType": "string",
          "name": "updatedAt",
          "type": "string"
        },
        {
          "indexed": false,
          "internalType": "string",
          "name": "publisher",
          "type": "string"
        }
      ],
      "name": "NewsPublish",
      "type": "event"
    },
    {
      "inputs": [],
      "name": "checkRunning",
      "outputs": [
        {
          "internalType": "bool",
          "name": "",
          "type": "bool"
        }
      ],
      "stateMutability": "view",
      "type": "function"
    },
    {
      "inputs": [
        {
          "internalType": "uint256",
          "name": "",
          "type": "uint256"
        }
      ],
      "name": "news",
      "outputs": [
        {
          "internalType": "string",
          "name": "id",
          "type": "string"
        },
        {
          "internalType": "string",
          "name": "title",
          "type": "string"
        },
        {
          "internalType": "string",
          "name": "content",
          "type": "string"
        },
        {
          "internalType": "string",
          "name": "createdAt",
          "type": "string"
        },
        {
          "internalType": "string",
          "name": "updatedAt",
          "type": "string"
        },
        {
          "internalType": "string",
          "name": "publisher",
          "type": "string"
        }
      ],
      "stateMutability": "view",
      "type": "function"
    },
    {
      "inputs": [
        {
          "internalType": "string",
          "name": "id",
          "type": "string"
        },
        {
          "internalType": "string",
          "name": "title",
          "type": "string"
        },
        {
          "internalType": "string",
          "name": "content",
          "type": "string"
        },
        {
          "internalType": "string",
          "name": "createdAt",
          "type": "string"
        },
        {
          "internalType": "string",
          "name": "updatedAt",
          "type": "string"
        },
        {
          "internalType": "string",
          "name": "publisher",
          "type": "string"
        }
      ],
      "name": "publish",
      "outputs": [],
      "stateMutability": "nonpayable",
      "type": "function"
    }
  ],
  "bytecode": "0x608060405260016000806101000a81548160ff02191690831515021790555034801561002a57600080fd5b50610caf8061003a6000396000f3fe608060405234801561001057600080fd5b50600436106100415760003560e01c80635afa34db14610046578063b8d3d5be1461007b578063f0d2d17514610099575b600080fd5b610060600480360381019061005b91906105b3565b6100b5565b60405161007296959493929190610670565b60405180910390f35b610083610431565b6040516100909190610716565b60405180910390f35b6100b360048036038101906100ae9190610866565b610442565b005b600181815481106100c557600080fd5b90600052602060002090600602016000915090508060000180546100e8906109ca565b80601f0160208091040260200160405190810160405280929190818152602001828054610114906109ca565b80156101615780601f1061013657610100808354040283529160200191610161565b820191906000526020600020905b81548152906001019060200180831161014457829003601f168201915b505050505090806001018054610176906109ca565b80601f01602080910402602001604051908101604052809291908181526020018280546101a2906109ca565b80156101ef5780601f106101c4576101008083540402835291602001916101ef565b820191906000526020600020905b8154815290600101906020018083116101d257829003601f168201915b505050505090806002018054610204906109ca565b80601f0160208091040260200160405190810160405280929190818152602001828054610230906109ca565b801561027d5780601f106102525761010080835404028352916020019161027d565b820191906000526020600020905b81548152906001019060200180831161026057829003601f168201915b505050505090806003018054610292906109ca565b80601f01602080910402602001604051908101604052809291908181526020018280546102be906109ca565b801561030b5780601f106102e05761010080835404028352916020019161030b565b820191906000526020600020905b8154815290600101906020018083116102ee57829003601f168201915b505050505090806004018054610320906109ca565b80601f016020809104026020016040519081016040528092919081815260200182805461034c906109ca565b80156103995780601f1061036e57610100808354040283529160200191610399565b820191906000526020600020905b81548152906001019060200180831161037c57829003601f168201915b5050505050908060050180546103ae906109ca565b80601f01602080910402602001604051908101604052809291908181526020018280546103da906109ca565b80156104275780601f106103fc57610100808354040283529160200191610427565b820191906000526020600020905b81548152906001019060200180831161040a57829003601f168201915b5050505050905086565b60008054906101000a900460ff1681565b60016040518060c0016040528088815260200187815260200186815260200185815260200184815260200183815250908060018154018082558091505060019003906000526020600020906006020160009091909190915060008201518160000190816104af9190610ba7565b5060208201518160010190816104c59190610ba7565b5060408201518160020190816104db9190610ba7565b5060608201518160030190816104f19190610ba7565b5060808201518160040190816105079190610ba7565b5060a082015181600501908161051d9190610ba7565b5050507f694b1a1bcc1d8ed2f716a47db66e14575eee8e9a618108699ca7b910e51bf27386868686868660405161055996959493929190610670565b60405180910390a1505050505050565b6000604051905090565b600080fd5b600080fd5b6000819050919050565b6105908161057d565b811461059b57600080fd5b50565b6000813590506105ad81610587565b92915050565b6000602082840312156105c9576105c8610573565b5b60006105d78482850161059e565b91505092915050565b600081519050919050565b600082825260208201905092915050565b60005b8381101561061a5780820151818401526020810190506105ff565b60008484015250505050565b6000601f19601f8301169050919050565b6000610642826105e0565b61064c81856105eb565b935061065c8185602086016105fc565b61066581610626565b840191505092915050565b600060c082019050818103600083015261068a8189610637565b9050818103602083015261069e8188610637565b905081810360408301526106b28187610637565b905081810360608301526106c68186610637565b905081810360808301526106da8185610637565b905081810360a08301526106ee8184610637565b9050979650505050505050565b60008115159050919050565b610710816106fb565b82525050565b600060208201905061072b6000830184610707565b92915050565b600080fd5b600080fd5b7f4e487b7100000000000000000000000000000000000000000000000000000000600052604160045260246000fd5b61077382610626565b810181811067ffffffffffffffff821117156107925761079161073b565b5b80604052505050565b60006107a5610569565b90506107b1828261076a565b919050565b600067ffffffffffffffff8211156107d1576107d061073b565b5b6107da82610626565b9050602081019050919050565b82818337600083830152505050565b6000610809610804846107b6565b61079b565b90508281526020810184848401111561082557610824610736565b5b6108308482856107e7565b509392505050565b600082601f83011261084d5761084c610731565b5b813561085d8482602086016107f6565b91505092915050565b60008060008060008060c0878903121561088357610882610573565b5b600087013567ffffffffffffffff8111156108a1576108a0610578565b5b6108ad89828a01610838565b965050602087013567ffffffffffffffff8111156108ce576108cd610578565b5b6108da89828a01610838565b955050604087013567ffffffffffffffff8111156108fb576108fa610578565b5b61090789828a01610838565b945050606087013567ffffffffffffffff81111561092857610927610578565b5b61093489828a01610838565b935050608087013567ffffffffffffffff81111561095557610954610578565b5b61096189828a01610838565b92505060a087013567ffffffffffffffff81111561098257610981610578565b5b61098e89828a01610838565b9150509295509295509295565b7f4e487b7100000000000000000000000000000000000000000000000000000000600052602260045260246000fd5b600060028204905060018216806109e257607f821691505b6020821081036109f5576109f461099b565b5b50919050565b60008190508160005260206000209050919050565b60006020601f8301049050919050565b600082821b905092915050565b600060088302610a5d7fffffffffffffffffffffffffffffffffffffffffffffffffffffffffffffffff82610a20565b610a678683610a20565b95508019841693508086168417925050509392505050565b6000819050919050565b6000610aa4610a9f610a9a8461057d565b610a7f565b61057d565b9050919050565b6000819050919050565b610abe83610a89565b610ad2610aca82610aab565b848454610a2d565b825550505050565b600090565b610ae7610ada565b610af2818484610ab5565b505050565b5b81811015610b1657610b0b600082610adf565b600181019050610af8565b5050565b601f821115610b5b57610b2c816109fb565b610b3584610a10565b81016020851015610b44578190505b610b58610b5085610a10565b830182610af7565b50505b505050565b600082821c905092915050565b6000610b7e60001984600802610b60565b1980831691505092915050565b6000610b978383610b6d565b9150826002028217905092915050565b610bb0826105e0565b67ffffffffffffffff811115610bc957610bc861073b565b5b610bd382546109ca565b610bde828285610b1a565b600060209050601f831160018114610c115760008415610bff578287015190505b610c098582610b8b565b865550610c71565b601f198416610c1f866109fb565b60005b82811015610c4757848901518255600182019150602085019450602081019050610c22565b86831015610c645784890151610c60601f891682610b6d565b8355505b6001600288020188555050505b50505050505056fea264697066735822122093f255eaf8b3a594c3110554e969dfea8a1d51e8d3b8883c33ee0bebc99d0f7564736f6c63430008130033",
  "linkReferences": {},
  "deployedLinkReferences": {}
}